:020000040800F2
:1000000000500020C90100085501000855010008F2
:1000100055010008550100085501000800000000C6
:100020000000000000000000000000005501000872
:1000300055010008000000005501000855010008A6
:100040005501000855010008550100085501000838
:100050005501000855010008550100085501000828
:100060005501000855010008550100085501000818
:100070005501000855010008550100085501000808
:1000800055010008550100085501000855010008F8
:1000900055010008550100085501000855010008E8
:1000A00055010008550100085501000855010008D8
:1000B00055010008550100085501000855010008C8
:1000C00055010008550100085501000855010008B8
:1000D00055010008290900087D090008D109000818
:1000E00055010008550100080000000055010008F6
:1000F0005501000855010008550100085501000888
:100100005501000855010008550100085501000877
:100110005501000855010008550100085501000867
:100120005501000855010008550100085501000857
:1001300010F8012B11F8013B012A28BF9A42F7D091
:10014000D01A7047034613F8012B002AFBD1181A66
:1001500001387047FEE700BF002200B585B01146A8
:100160000D2301A800F086F801A902A800F0B6F856
:1001700000210D23012201A800F07CF801A903A8A9
:10018000104C00F005F9012001F07AF901F0A6F910
:1001900084FB0032C317C3EB620303EB830203EB60
:1001A0004203C01A042802A805DD00F0D1F803A814
:1001B00000F02EF9E7E700F0C3F803A800F01EF9FD
:1001C000E1E700BFE9A28B2E2549264D08B5491B62
:1001D00089101ED04B1E022B3CD9234C2B462246A5
:1001E00021F0030CAC4452F8040B43F8040B6345B4
:1001F000F9D1880721F003030BD0E25CEA545A1CC2
:10020000914206D90233A05C9942A85484BFE25CB3
:10021000EA54164A164C121B921019D0531E022B88
:100220001BD92346002022F00301214443F8040B8C
:100230008B42FBD1910722F0030309D00021581C07
:100240009042E15404D202339A42215488BFE154CF
:10025000FFF782FF0023044CCFE70023EEE700BF47
:1002600070000020000000206822000860010020CB
:100270007000002001F0C30141EA820121F0C001B9
:1002800041EA831101807047008800F00300704745
:10029000008800F0030070470088C0F383007047B7
:1002A0000088C0F3831070470020704708B50648E7
:1002B00000F0B8F8054800F0C5F82421044B054AC1
:1002C000054800F0CBFC00BF702200088026000823
:1002D0008C22000890220008F022000838B505465C
:1002E0000B8808462B800C46FFF7DEFF48B90F4805
:1002F00000F098F80E4800F0A5F82046FFF7D4FF6C
:1003000060B12046FFF7C4FF02280DD8203000F06E
:10031000B5F8204600F0EAF9284638BD2021054B03
:10032000054A064800F09AFCFFF7C0FF04230008C6
:100330001C2300083023000844230008E0230008A1
:1003400010B50121044600F03DFA0023A37010BD52
:1003500010B50021044600F035FA0123A37010BD4A
:1003600008B5064800F05EF8054800F06BF8242157
:10037000044B054A054800F071FC00BF70220008DC
:10038000802600088C22000890220008F022000835
:1003900038B5012204460B880846227063800D465A
:1003A000FFF782FF48B9104800F03CF80F4800F012
:1003B00049F82846FFF778FF68B1A51C2846FFF7E3
:1003C00063FF02280DD8203000F058F8284600F0CE
:1003D0008DF9204638BD2121054B064A064800F01C
:1003E0003DFCFFF7BDFF00BFF02300080C24000810
:1003F000242400083C240008E024000810B5012152
:100400000446023000F0DEF90023237010BD00BF67
:1004100010B500210446023000F0D4F90123237006
:1004200010BD00BF017851B138B50446044D2846CF
:1004300000F02AFA14F8011F0029F8D138BD7047DE
:100440007000002070B55B2104460A4D0A4E30460C
:1004500000F01AFA15F8011F0029F8D1217839B1F6
:10046000054D284600F010FA14F8011F0029F8D1B4
:1004700070BD00BFF424000870000020073808B5E4
:10048000222800F21A81DFE810F011010A010301AD
:10049000FC00F500EE00E700E000D900D200CB0040
:1004A000C400BD00B600AF00A800A1009A009300F0
:1004B0008C0085007E0077007000690062005B00A0
:1004C00054004D0046003F00380031002A00230050
:1004D000804B1A68936943F48043936108BD7D4B58
:1004E0001A68936943F48053936108BD794B1A6885
:1004F000936943F40063936108BD764B1A6893696E
:1005000043F48063936108BD724B1A68936943F4A6
:100510000073936108BD6F4B1A68936943F0400301
:10052000936108BD6B4B1A68936943F02003936194
:1005300008BD684B1A68936943F01003936108BDC6
:10054000644B1A68936943F00803936108BD614BDB
:100550001A68936943F00403936108BD5D4B1A6800
:10056000936943F00103936108BD5A4B1A68D3693C
:1005700043F08063D36108BD564B1A68D36943F0DA
:100580000073D36108BD534B1A68D36943F080737D
:10059000D36108BD4F4B1A68D36943F48003D3611C
:1005A00008BD4C4B1A68D36943F40023D36108BDDE
:1005B000484B1A68D36943F48023D36108BD454B87
:1005C0001A68D36943F40033D36108BD414B1A68FC
:1005D000D36943F48033D36108BD3E4B1A68D369B5
:1005E00043F40043D36108BD3A4B1A68D36943F41E
:1005F0008043D36108BD374B1A68D36943F4005375
:10060000D36108BD334B1A68D36943F48053D36177
:1006100008BD304B1A68D36943F40073D36108BD39
:100620002C4B1A68D36943F02003D36108BD294BD2
:100630001A68D36943F01003D36108BD254B1A68CB
:10064000D36943F00803D36108BD224B1A68D3690C
:1006500043F00403D36108BD1E4B1A68D36943F00D
:100660000203D36108BD1B4B1A68D36943F0010331
:10067000D36108BD174B1A68536943F040035361B7
:1006800008BD144B1A68536943F01003536108BD49
:10069000104B1A68536943F00403536108BD0D4BB6
:1006A0001A68536943F00203536108BD094B1A6885
:1006B000536943F00103536108BD0748FFF7B2FED9
:1006C0000648FFF7BFFEBC21054B064A064800F06E
:1006D000C5FA00BF74000020982600088026000894
:1006E0008C220008B42600088426000870B5054650
:1006F000FFF7D6FD04462846FFF7CAFD02462D4BFC
:10070000284653F82250FFF7C7FD072829D8830051
:10071000DBB2D91CC9B2C91A1F2914BF01224FF07C
:10072000FF3201F1010C18BF02FA0CF22E6818BF5B
:1007300002F1FF329A4026EA020204FA03F313435D
:100740002B60231FDBB2102B0AD8082C25D0142CC9
:1007500006D10122EB6802FA00F023EA0000E8600B
:1007600070BDA0F108039B00DBB2DA1CD2B2934249
:10077000696819D8D21A1F2A02F1010617BF01228F
:100780004FF0FF32B24002F1FF329A4021EA0202FA
:1007900004FA03F313436B60D3E70123EA6803FA17
:1007A00000F01043E86070BD4021034B034A044849
:1007B00000F054FA78000020042700083C270008C5
:1007C000B027000838B505460C46FFF765FD014621
:1007D00028460D46FFF75CFD084B53F8203034B136
:1007E000012C03D1D968AC400C43DC6038BD012436
:1007F000D968AC4021EA0401D96038BD78000020F6
:10080000034B1B681868C0F3C01080F001007047EC
:10081000A8000020034B1B681868C0F3801080F00C
:1008200001007047A800002008B50648FFF7FAFD50
:100830000548FFF707FE2E21044B054A054800F046
:100840000DFA00BF00250008802600088C22000851
:10085000D0270008F022000822B1012A00D101604F
:1008600000207047014B03600020704748280008B3
:1008700022B1012A00D1016000207047014B0360C2
:10088000002070474028000870B5224A224888B0EE
:10089000134600240D46CDE9020207E0B4F5FA6FD5
:1008A00034D0029B0134002B32D0039B684698471A
:1008B0000028F3D1B4F5FA6F28D0029B1BB169462A
:1008C000032208469847154E154A336815495D605E
:1008D00000241346CDE9061206E0B4F5FA6F15D0F0
:1008E000069B0134A3B1079B04A898470028F4D1C4
:1008F000B4F5FA6F0AD0069B1BB104A9032208467F
:100900009847002233681A6008B070BDFFF78CFF6B
:1009100000F098F90108000859080008A800002014
:10092000150800087108000808B5104B1B68590627
:1009300008D50F4B1B6803B198470C4B1A686FF32F
:1009400086121A60094B1A6892060DD5094A0A499F
:100950005B68126809689BB20B8002B19047034B39
:100960001A686FF345121A6008BD00BF00380140D5
:100970009C000020900000208400002008B5104B4F
:100980001B68590608D50F4B5B6803B198470C4BA1
:100990001A686FF386121A60094B1A6892060DD511
:1009A00009490A4A5B68496852689BB20B8002B1E8
:1009B0009047034B1A686FF345121A6008BD00BFD9
:1009C000004400409C000020840000209000002093
:1009D00008B5104B1B68590608D50F4B9B6803B12F
:1009E00098470C4B1A686FF386121A60094B1A6805
:1009F00092060DD509490A4A5B68896892689BB2DC
:100A00000B8002B19047034B1A686FF345121A60CE
:100A100008BD00BF004800409C000020840000206A
:100A2000900000207FB500241023CDE90234036834
:100A300015469E69CDE900446B461268B0479DF8A3
:100A4000043003F00603062B09BF01202046009B5B
:100A50002B6004B070BD0098904214BF01200620A6
:100A60007047000010B50446024B036000F0D1F857
:100A7000204610BDEC28000810B50446FFF7F2FF31
:100A80002046082100F042F8204610BD2DE9F04133
:100A9000DDF818801F46DDE90834984506461546FE
:100AA00007D1079900F0B8F818B165710020BDE8CA
:100AB000F0813946304600F0AFF80028F6D0012327
:100AC000C4F800802571A371F0E738B515461C46BF
:100AD00000F0A2F820B10823E3600623256023710B
:100AE00038BD2DE9F04105460C4616461F4600F07C
:100AF00093F848B9032F07D8236832462946204681
:100B0000BDE8F0415B691847BDE8F08100F09DB891
:100B100010B50446024B0360FFF7A4FF204610BD4A
:100B20004C29000810B50446FFF7F2FF20460C21BF
:100B3000FFF7ECFF204610BD2DE9F041DDF81880ED
:100B4000064690450F4615461C460BD0B0682A460F
:100B50000368CDF818801E6A39462346B446BDE8BE
:100B6000F0416047194600F057F80028EED0062003
:100B7000BDE8F0812DE9F14F0D46DDE90A4BDDE9D5
:100B80000CA6194681461746984600F045F890B1E4
:100B9000002D3460377109DB2C44A2450CBF0624BC
:100BA0000124B471002001B0BDE8F08F0235F9D105
:100BB0000123B371F6E7544506D15946484600F083
:100BC0002BF808B17771EDE7D9F808003A460368C9
:100BD000CDE90CA6CDE90A4BDC6929464346A4467B
:100BE00001B0BDE8F04F60472DE9F04107460C46E3
:100BF00015461E46FFF769FF48B9B8682A460368DC
:100C000021469F693346BC46BDE8F0416047BDE8D8
:100C1000F081704700207047814208B50ED04068CF
:100C200003782A2B0CD049680B782A2B08BF013196
:100C3000FFF77EFAB0FA80F0400908BD0120FCE71A
:100C40000020FAE708B500F002F800F03FB80620EF
:100C500008B500F0B9FC012001F0D6FA1FB5144622
:100C60001A46094B05461B68D8684CB1074BCDE9BD
:100C7000013400912B46064900F00EF8FFF7E7FF1C
:100C8000044B1C46F3E700BF000000208529000844
:100C900092290008C02900080EB403B5014603AB31
:100CA000054853F8042B0068019300F023F902B0C3
:100CB0005DF804EB03B0704700000020024B0146D2
:100CC000186800F07BB800BF00000020024B01460E
:100CD000186800F00BB800BF000000200346024473
:100CE000934200D1704703F8011BF9E738B5054678
:100CF000002940D051F8043C0C1F002BB8BFE41869
:100D000000F068FF1C4A136833B96360146028461A
:100D1000BDE8384000F064BFA34208D9206821181C
:100D20008B4201BF19685B6809182160EDE71A461C
:100D30005B680BB1A342FAD911685018A0420BD1DD
:100D400020680144501883421160E0D118685B6844
:100D5000014411605360DAE702D90C232B60D6E717
:100D6000206821188B4201BF19685B68091821604F
:100D700063605460CBE738BDAC00002070B50E4E08
:100D80000C463168054611B900F0E6FB306021469B
:100D9000284600F0E1FB431C0AD0C41C24F00304E5
:100DA000A04207D0211A284600F0D6FB013001D11D
:100DB0004FF0FF34204670BDB00000202DE9F04117
:100DC000CD1C25F0030508350C2D38BF0C25002D52
:100DD000074601DBA94205D90C2300263B603046BB
:100DE000BDE8F0812E4E00F0F5FE33681C4634BBA2
:100DF00029463846FFF7C2FF431C04464DD13468EC
:100E00002646002E40D123683146384604EB0308BD
:100E100000F0A2FB80453AD1216803356D1A25F018
:100E2000030508350C2D38BF0C2538462946FFF739
:100E3000A5FF01302BD023682B4423600EE02268ED
:100E4000521B1ED40B2A16D96119A342256018BF64
:100E50005960636808BF316062514B60384604F1E5
:100E60000B0600F0BDFE26F00706231DF21AB6D0D1
:100E70009B1BA350B3E76268A3420CBF32605A6069
:100E8000ECE723466468B2E734467668B9E70C239A
:100E900038463B6000F0A4FEA1E72560DEE700BF16
:100EA000AC000020936810B4013B002B936007DA7C
:100EB0009469A34201DB0A2902D110BC00F0A0BB57
:100EC0001368581C10601970084610BC7047F8B5BC
:100ED00006460F461446D518AC4201D1002007E063
:100EE0003A46304614F8011BFFF7DCFF431CF3D1F0
:100EF000F8BD00002DE9F04F0D4614469846064611
:100F00009DB018B183690BB900F050FD894B9D422B
:100F10001BD175686B6ED90705D4AB899A0502D4CD
:100F2000A86D00F0E1FDAB891B0701D52B69EBB97A
:100F30002946304600F0B6FBC0B16B6EDC070ED51B
:100F40004FF0FF301DB0BDE8F08F7B4B9D4201D1CB
:100F5000B568DFE7794B9D4208BFF568DAE7AB89F2
:100F60009805EDD4A86D00F0C0FDE9E700230993D2
:100F700020238DF8293030234FF00109CDF80C8063
:100F8000DFF8BC818DF82A3023469A4613F8012BEE
:100F90000AB1252AF9D1BAEB040B0BD05B462246E5
:100FA00029463046FFF793FF013000F0AA80099AE6
:100FB0005A4409929AF80030002B00F0A2800023D6
:100FC0004FF0FF32CDE905230AF1010A049307939C
:100FD0008DF853301A935446052214F8011B5848D3
:100FE00000F0EAFD049AD8B9D10644BF20238DF859
:100FF0005330130744BF2B238DF853309AF8003039
:101000002A2B15D0544600204FF00A0C079A21468F
:1010100011F8013B303B092B4ED9B0B1079214E0D7
:10102000A0EB080309FA03F31343A2460493D2E7A3
:10103000039B191D1B680391002BBBBF5B4242F051
:10104000020207930793B8BF049223782E2B0CD18A
:1010500063782A2B35D1039B02341A1D1B68039237
:10106000002BB8BF4FF0FF330593DFF8D8A0032261
:101070005046217800F0A0FD40B14023A0EB0A00CB
:1010800003FA00F0049B01340343049314F8011B9A
:1010900006222D488DF8281000F08EFD00283FD044
:1010A0002A4B1BBB039B073323F00703083303932F
:1010B000099B3B44099367E70C4601200CFB023275
:1010C000A5E700234FF00A0C19460134059320468A
:1010D00010F8012B303A092A03D9002BC5D005910D
:1010E000C3E7044601230CFB0121F0E703AB0093A7
:1010F0002A463046164B04A9AFF300800746781CF9
:10110000D6D16B6ED90705D4AB899A0502D4A86DE8
:1011100000F0EBFCAB895B063FF512AF099811E7D5
:1011200003AB00932A463046094B04A900F082F82D
:10113000E4E700BFB02A0008D02A0008902A00087F
:10114000C8290008CE290008D229000800000000A4
:10115000CF0E00082DE9F047164699468A680B69BC
:1011600007469342B8BF1346336091F843200C46BC
:10117000DDF820800AB1013333602368990642BF4D
:10118000336802333360256815F0060506D104F193
:10119000190AE36832689B1AAB4228DC94F84320B2
:1011A000131E226818BF012392062DD449463846E3
:1011B00004F14302C047013020D02368E56803F002
:1011C0000603042B18BF002532684FF00006A36801
:1011D00008BFAD1A226908BF25EAE5759342C4BF6E
:1011E0009B1AED181A34B5421AD1002008E00123E9
:1011F000524649463846C047013003D14FF0FF30D0
:10120000BDE8F0870135C4E73020E11881F84300DC
:101210005A1C94F845102244023382F84310C5E763
:101220000123224649463846C0470130E6D0013600
:10123000D9E700002DE9FF470F7E9146782F8046C1
:101240000C469A460C9D01F1430207D8622F0AD83A
:10125000002F00F0D980582F00F0A48004F142053F
:1012600084F842703AE0A7F16303152BF6D801A188
:1012700051F823F0CD120008E11200085D120008B9
:101280005D1200085D1200085D120008E1120008FE
:101290005D1200085D1200085D1200085D12000872
:1012A000EF13000811130008D11300085D120008A5
:1012B0005D120008111400085D12000811130008E7
:1012C0005D1200085D120008D91300082B681A1D72
:1012D0001B682A6004F1420584F842300123A4E02F
:1012E00020682968060601F104030AD50E682B6000
:1012F000002E03DA2D23764284F843300A235E4819
:1013000019E00E6810F0400F2B6018BF36B2EFE7FF
:101310002B682068191D2960010601D51E6802E0AE
:101320004606FBD51E886F2F0CBF08230A235248A0
:10133000002184F843106568002DA8BF2168A560CE
:10134000A4BF21F0040121600EB9002D4DD0154637
:10135000B6FBF3F103FB1167C75D05F8017D374666
:10136000BB420E46F4D9082B0BD12368DE0708D503
:10137000236961689942DEBF302305F8013C05F11D
:10138000FF35521B22614B4621464046CDF800A056
:1013900003AAFFF7DFFE01304CD14FF0FF3004B05D
:1013A000BDE8F087344881F845702968236851F812
:1013B000046B29601D0614D5DF0744BF43F02003EA
:1013C00023601EB9236823F0200323601023AFE7B6
:1013D000236843F0200323607823284884F84530AD
:1013E000E3E7590648BFB6B2E6E71546BBE72B6808
:1013F0002668181D6169286035061B6801D51960CB
:1014000002E07006FBD51980002315462361BAE778
:101410002B6800211A1D2A601D686268284600F0AA
:10142000CBFB08B1401B606063682361002384F834
:101430004330A8E72A46494640462369D047013051
:10144000ABD023689B0713D4E068039B9842B8BFD6
:101450001846A4E70123324649464046D0470130AA
:101460009BD00135E36803995B1AAB42F2DCEBE7F2
:10147000002504F11906F5E7D9290008EA29000832
:1014800038B5104B04461D68AB6BB3B91820FFF795
:1014900015FC0246A86320B942210B4B0B48FFF70D
:1014A000DDFB0B490B4BC0E900130B4B00218360A4
:1014B0000B2383810120C2E904010022AB6B1C6174
:1014C0005A6138BD00000020FB290008122A0008DC
:1014D0000E33CDAB34126DE6ECDE0500164B10B5C5
:1014E0001C68A36BB3B91820FFF7E8FB0246A063A2
:1014F00020B94E21114B1248FFF7B0FB1149124B96
:10150000C0E90013114B002183600B23838101206C
:10151000C2E90401A46B0E4A2069636942430D4984
:1015200001FB0322A0FB0101431C42EB0100C4E9C3
:10153000043020F0004010BD00000020FB2900080E
:10154000122A00080E33CDAB34126DE6ECDE050036
:101550002DF451582D7F954C38B50023054D044688
:1015600008462B6000F0E8FC431C02D12B6803B155
:10157000236038BDB80000201F2938B504460D4649
:1015800004D9162303604FF0FF3038BD426C12B10E
:1015900052F821304BB9204600F030F82A46014677
:1015A0002046BDE8384000F017B8012B0AD0591C7E
:1015B00003D1162303600120E7E70024284642F800
:1015C000254098470020E0E7024B01461868FFF7E6
:1015D000D3BF00BF0000002038B50023064D0446ED
:1015E000084611462B6000F02DFE431C02D12B68EB
:1015F00003B1236038BD00BFB800002000F09ABCE2
:10160000F8B50E461446054618B183690BB900F0CB
:10161000CDF9214B9C422BD16C68A369A360A389AF
:101620001A072FD523696BB323692068F6B2C01A55
:1016300063693746834204DC2146284600F022F9DC
:1016400030BBA3680130013BA36023685A1C2260B1
:101650001E706369834204D0A389DB0706D50A2E76
:1016600004D12146284600F00DF988B93846F8BD66
:101670000A4B9C4201D1AC68CFE7094B9C4208BFA2
:10168000EC68CAE72146284600F00CF80028CBD0C9
:101690004FF0FF37EAE700BFB02A0008D02A000861
:1016A000902A0008324B70B51D6806460C4625B1DD
:1016B000AB6913B9284600F079F92E4B9C420FD143
:1016C0006C68A389B4F90C2019072CD4DD0611D459
:1016D0000923336042F040034FF0FF30A3813EE026
:1016E000254B9C4201D1AC68EBE7244B9C4208BFE0
:1016F000EC68E6E7580712D5616B41B104F1440389
:10170000994202D03046FFF7F1FA00236363A389C0
:1017100023F02403A3810023636023692360A3894A
:1017200043F00803A38123694BB9A38903F4207311
:10173000B3F5007F03D02146304600F0FDF9A089C3
:10174000B4F90C2010F001030AD00023A3606369F0
:101750005B42A361236943B910F08000BAD170BD28
:10176000810758BF6369A360F4E70020F7E700BF73
:1017700000000020B02A0008D02A0008902A0008A3
:101780008A89F8B5054610070C4657D44B68002BDC
:1017900004DC0B6C002B01DC0020F8BDE66A002E97
:1017A000FAD0002312F480522F682B6032D0606D83
:1017B000A3895A0705D56368C01A636B0BB1236C04
:1017C000C01A00230246E66A2846216AB047431C35
:1017D000A38906D129681D292CD8294ACA40D607D1
:1017E00028D5002262602269D904226004D5421CF7
:1017F00001D12B6803B96065616B2F600029CBD0E4
:1018000004F14403994202D02846FFF76FFA002002
:101810006063C2E7216A01232846B047411CC7D153
:101820002B68002BC4D01D2B01D0162B01D12F60AB
:10183000B2E7A38943F04003A381AEE70F69002F0D
:10184000AAD0930718BF00230E6808BF4B69F61B88
:101850000F608B60002E9FDD33463A462846216A92
:10186000D4F828C0E047002806DCA3894FF0FF30F9
:1018700043F04003A38190E70744361AEAE700BF2C
:101880000100402038B50B6905460C4613B9002508
:10189000284638BD18B183690BB900F087F8144B9E
:1018A0009C421BD16C68B4F90C30002BEFD0626EF7
:1018B000D00704D4990502D4A06D00F015F928468C
:1018C0002146FFF75DFF636E0546DA07E0D4A38982
:1018D0009B05DDD4A06D00F008F9D9E7054B9C42CB
:1018E00001D1AC68DFE7044B9C4208BFEC68DAE743
:1018F000B02A0008D02A0008902A0008002310B55A
:101900000446C0E90033C0E9043383608181436643
:10191000C2818361194608225C30FFF7DFF9054B6D
:1019200024626362044BA362044BE362044B2363AF
:1019300010BD00BFED1B00080F1C0008471C00086D
:101940006B1C0008014900F0AFB800BF8518000803
:10195000682270B54D1E55430E4605F17401FFF720
:101960002DFA044640B10021C0E900160C30A060F9
:1019700005F16802FFF7B2F9204670BD014800F09A
:10198000B3B800BFB5000020014800F0AEB800BFFA
:10199000B5000020014800F0A7B800BFB600002045
:1019A000014800F0A2B800BFB600002010B5044600
:1019B000FFF7F0FFA3691BB1BDE81040FFF7F0BFD0
:1019C000C4E912332365134B134A1B68A262A34276
:1019D00008BF0123204608BFA36100F01FF8606024
:1019E000204600F01BF8A060204600F017F8002207
:1019F0000421E0606068FFF781FF01220921A068EF
:101A0000FFF77CFF02221221E068FFF777FF012336
:101A1000A361D1E7C429000845190008F8B50746B5
:101A2000FFF7ACFF1E4B1E68B36913B93046FFF7D2
:101A3000BDFF4836D6E90134013B03D533680BB30B
:101A40003668F7E7B4F90C50D5B9164B04F15800D5
:101A5000E360656600F047F8FFF796FF0822294625
:101A6000C4E90155C4E904552560A56104F15C0091
:101A7000FFF734F9C4E90D55C4E912552046F8BD05
:101A80006834D9E704213846FFF762FF0446306026
:101A90000028D5D1FFF778FF0C233B60EEE700BFAD
:101AA000C42900080100FFFF2DE9F84306468846D7
:101AB000002700F14804D4E90195B9F1010905D5E1
:101AC0002468002CF7D13846BDE8F883AB89012B98
:101AD00007D9B5F90E30013303D029463046C04747
:101AE00007436835E9E770477047704770B50E46A1
:101AF000B1F90E10144600291D4696B008DA0022EE
:101B0000B6F90C302A601A0610D44FF480630EE048
:101B10006A4600F0D1F80028F1DB019A02F4704225
:101B2000A2F500535A425A412A60EEE740230020B2
:101B3000236016B070BD00008B8973B59D07064603
:101B40000C4607D504F14703236023610123636139
:101B500002B070BD6A4601ABFFF7C8FF00990546A9
:101B60003046FFF72BF948B9B4F90C309A05EFD499
:101B700023F0030343F00203A381E3E70D4BB362B9
:101B8000A389206043F08003A381009B20616361EF
:101B9000019B5BB13046B4F90E1000F09FF828B1FC
:101BA000A38923F0030343F00103A381A089054324
:101BB000A581CDE745190008034610B5C9B2024416
:101BC0009342184601D1002003E0047801338C428F
:101BD000F6D110BD0148FFF787BF00BFB400002059
:101BE0000148FFF782BF00BFB400002010B50C46CB
:101BF000B1F90E1000F094F80028ABBF636DA38913
:101C00001B1823F48053ACBF6365A38110BD2DE97D
:101C1000F0411F468B890546DB050C46164605D567
:101C200002230022B1F90E1000F068F8A3893246B1
:101C300023F48053A38128463B46B4F90E10BDE837
:101C4000F04100F017B810B50C46B1F90E1000F0D5
:101C500055F8431CA38915BF606523F4805343F4F2
:101C60008053A38118BFA38110BDB1F90E1000F0FD
:101C700013B8000038B50446084611460022054D49
:101C80002A601A4600F003F9431C02D12B6803B105
:101C9000236038BDB800002038B50023054D044648
:101CA00008462B6000F020F9431C02D12B6803B1D9
:101CB000236038BDB800002038B50023064D044627
:101CC000084611462B6000F07CF9431C02D12B68BA
:101CD00003B1236038BD00BFB800002038B5002331
:101CE000054D044608462B6000F072FA431C02D1F1
:101CF0002B6803B1236038BDB800002038B5044616
:101D0000084611460022054D2A601A4600F0ADF83B
:101D1000431C02D12B6803B1236038BDB8000020FA
:101D200038B50446084611460022054D2A601A4679
:101D300000F045F8431C02D12B6803B1236038BD85
:101D4000B80000200A4B10B50446186818B1836922
:101D50000BB9FFF72BFE132C07D8064850F8342098
:101D6000013202D000EBC40010BD0020FCE700BF30
:101D700000000020C0000020F8B5044600F06EFA14
:101D800013260546002730463946ABBE0646204698
:101D90002E60F8BD431C01D1FFF7EEBF704730B590
:101DA00085B00624CDE90101039201AD2046294604
:101DB000ABBE04462046FFF7EDFF05B030BD70B561
:101DC0000E461546FFF7BEFF044630B900F046FA4E
:101DD000092303604FF0FF3070BD2A46314600688A
:101DE000FFF7DDFF431C1FBF6368281A1B186360E1
:101DF000F2E7F7B50C461646FFF7A4FF054640B9D3
:101E000000F02CFA092303604FF0FF34204603B0A2
:101E1000F0BD022E03D900F021FA1623F3E7012EBC
:101E200012D14368E418F6D42B680A266F46CDE930
:101E3000003430463946ABBE06463046FFF7AAFFAF
:101E40000028E1DB6C60E1E7022EEDD103680C268F
:101E50006F46009330463946ABBE06463046FFF724
:101E600099FF431CD0D00444DEE7FFF7C2BF30B572
:101E700085B00524CDE90101039201AD2046294634
:101E8000ABBE04462046FFF785FF05B030BD70B5F8
:101E90000E461546FFF756FF044630B900F0DEF94E
:101EA000092303604FF0FF3070BD2A4631460068B9
:101EB000FFF7DDFF031EF5DB6268E81A0244AB4260
:101EC0006260F1D1BDE870400020FFF755BF37B523
:101ED0000224019001AD20462946ABBE04462046AF
:101EE000FFF758FF03B030BD38B50546FFF72AFFAE
:101EF000044630B900F0B2F9092303604FF0FF3017
:101F000038BD013D012D09D8094B9A681B699A42D9
:101F100004D14FF0FF3303600020F1E72068FFF7A2
:101F2000D6FF0028ECD14FF0FF332360E8E700BF75
:101F3000C0000020012070470D4A0346116810B50B
:101F400009B90C4911606946106803448B4206D8F0
:101F500009490A4C0968A14208D08B4206D900F011
:101F60007DF90C2303604FF0FF3010BD1360FCE7D8
:101F7000BC0000206001002064000020ADDEFECA2D
:101F800070B50C46FFF7DEFE054630B900F066F985
:101F9000092303604FF0FF3070BD63680C2643F4E3
:101FA000005363604FF48063A36430462946ABBEA0
:101FB00005462846FFF7EEFE431C1CBF20610020AB
:101FC000EAE70B4610B50021044658221846FEF7F2
:101FD00085FE01462046BDE81040FFF7D1BF38B569
:101FE0000D460446582200212846FEF777FE20467B
:101FF000002100F011F8431C04460BD06B68294601
:1020000043F401436B60FFF7BBFF05462046FFF733
:102010006BFF2C46204638BD2DE9F04307460E469F
:102020000025DFF8A48097B058F83540611C37D000
:102030000135142DF8D100F011F918234FF0FF34B9
:1020400003603DE040F20163C6F30044B20748BFBD
:1020500044F002041E4218BF44F00404330748BF92
:1020600024F00404384648BF44F008040097FEF703
:1020700069F8CDE90140012420464946ABBE04463B
:10208000002C08DB002348F8354008EBC5082C4637
:10209000C8F8043014E02046FFF76EFE04460FE057
:1020A00006F42063B3F5206FE946CBD149463846A4
:1020B000FFF795FF0130C5D000F0D0F81123036081
:1020C000204617B0BDE8F083C00000202DE9F7439B
:1020D00006460F462A4800211546FFF79DFF044695
:1020E0002A4600213046FEF7F9FD631C16D0204633
:1020F000FFF728FE4FF00C08814640464946ABBE2C
:1021000080464046FFF746FE032802DDC31EAB4271
:1021100008DC2046FFF7E8FE4FF0FF34204603B00E
:10212000BDE8F083042220460DEB0201FFF747FED5
:102130000328EEDD9DF80430532BEAD19DF80530DD
:10214000482BE6D19DF80630462BE2D19DF80730AA
:10215000422BDED1012239462046FFF74AFE0028F5
:10216000D7DB2A4631462046FFF729FE05462046A2
:10217000FFF7BAFE2846FFF70DFE0446CEE700BF84
:10218000F02A000837B500210122094D094C01A8A9
:1021900029602260FFF79AFF002807DD9DF80430D0
:1021A00003F0010203F002032A60236003B030BD94
:1021B000680000206C00002010B5044C2368002B40
:1021C00001DAFFF7DFFF206810BD00BF68000020C4
:1021D00070B5FFF7B7FD0925044620B900F03EF8B9
:1021E0000560204670BD28462146ABBE0446012C42
:1021F000F7D000F033F80024054613263046214678
:10220000ABBE06462E60ECE7014608B54FF0FF3046
:10221000014A00F003F800BF2600020007B5CDE92F
:102220000021FFF7C9FF002814BF20241824FFF75E
:10223000C3FF20B16D4620462946ABBE0446009D33
:10224000F9E70000062908B50CBF024A024AFFF769
:10225000E5FF00BF2300020026000200014B1868C2
:08226000704700BF00000020E0
:04226800F8B500BF06
:04226C00F8B500BF02
:10227000222E2F696E632F7574696C732F557469E4
:102280006C2E68223A3336203A00000030000000FD
:1022900073746D33323A3A70657269706865726151
:1022A0006C733A3A5065726970686572616C20733C
:1022B000746D33323A3A7574696C3A3A4D617050C4
:1022C0006F7274546F5065726970686572616C28C2
:1022D00073746D33323A3A6465763A3A6D63616C81
:1022E0003A3A70696E3A3A506F72742900000000F1
:1022F0002E2F696E632F7574696C732F5574696C1A
:102300002E680000227372632F68616C2F4C656425
:102310002E637070223A3332203A0000496E7661A3
:102320006C69645F4C45445F434F4E46494700002B
:102330004C656450696E2E49734F757470757428BE
:102340002900000073746D33323A3A6465763A3A84
:1023500068616C3A3A6C65643A3A4C65643C435443
:102360003E3A3A4C656428636F6E73742073746DE3
:1023700033323A3A6465763A3A6D63616C3A3A7050
:10238000696E3A3A50696E2629205B776974682035
:1023900073746D33323A3A747970653A3A436F6EBA
:1023A0006E656374696F6E54797065204354203D87
:1023B0002073746D33323A3A747970653A3A436FE8
:1023C0006E6E656374696F6E547970653A3A6B46E8
:1023D0006F72776172645F426961735D0000000033
:1023E0007372632F68616C2F4C65642E637070008C
:1023F000227372632F68616C2F42757A7A65722E30
:10240000637070223A3333203A000000496E7661DF
:102410006C69645F42555A5A45525F434F4E464974
:102420004700000062757A7A657250696E2E4973B2
:102430004F757470757428290000000073746D3333
:10244000323A3A6465763A3A68616C3A3A62757A39
:102450007A65723A3A42757A7A65723C43543E3AEA
:102460003A42757A7A657228636F6E73742073745A
:102470006D33323A3A6465763A3A6D63616C3A3A52
:1024800070696E3A3A50696E2629205B77697468E4
:102490002073746D33323A3A747970653A3A436F07
:1024A0006E6E656374696F6E547970652043542055
:1024B0003D2073746D33323A3A747970653A3A4319
:1024C0006F6E6E656374696F6E547970653A3A6BBE
:1024D000466F72776172645F426961735D000000EC
:1024E0007372632F68616C2F42757A7A65722E63FE
:1024F000707000005B4572726F725D3A20000000E0
:10250000222E2F696E632F7574696C732F55746951
:102510006C2E68223A3436203A000000766F6964E7
:102520002073746D33323A3A7574696C3A3A427575
:1025300073795761697428636F6E73742046756E82
:10254000632629205B7769746820696E742074693A
:102550006D656F7574203D203430303B2073746D91
:1025600033323A3A7574696C3A3A46756E63203D77
:10257000207374643A3A66756E6374696F6E3C6278
:102580006F6F6C28293E5D00227372632F6D63614B
:102590006C2F5263632E637070223A313134203ACB
:1025A00000000000496E76616C6964204D434F2045
:1025B00050494E204D6F6465000000006D6F6465EA
:1025C000203D3D206B4D636F4E6F436C6F636B20FE
:1025D0007C7C206D6F6465203D3D206B4D636F53A7
:1025E000797374656D436C6F636B207C7C206D6FB9
:1025F0006465203D3D206B4D636F487369207C7C92
:10260000206D6F6465203D3D206B4D636F487365A1
:10261000207C7C206D6F6465203D3D206B4D636F99
:10262000506C6C0073746174696320766F69642008
:1026300073746D33323A3A6465763A3A6D63616C1D
:102640003A3A7263633A3A5263633A3A5365744D65
:10265000434F50696E436C6B28636F6E73742073C5
:10266000746D33323A3A6465763A3A6D63616C3A26
:102670003A7263633A3A4D636F4D6F64657326290E
:10268000000000007372632F6D63616C2F526363EF
:102690002E63707000000000227372632F6D6361FF
:1026A0006C2F5263632E637070223A313838203AAF
:1026B0000000000073746174696320766F696420A0
:1026C00073746D33323A3A6465763A3A6D63616C8D
:1026D0003A3A7263633A3A5263633A3A456E6162D8
:1026E0006C652873746D33323A3A7065726970683C
:1026F0006572616C733A3A506572697068657261AF
:102700006C2900007374617274203C3D20656E6416
:10271000202626202243616C6C696E6720577269FF
:102720007465426974732077697468207374617288
:10273000744269742066697273742200636F6E73E9
:10274000746578707220542073746D33323A3A7520
:1027500074696C3A3A577269746542697473287582
:10276000696E74385F742C2075696E74385F742CD0
:1027700020542C205429205B776974682054203D14
:10278000206C6F6E6720756E7369676E6564206973
:102790006E743B2075696E74385F74203D20756ED1
:1027A0007369676E656420636861725D0000000094
:1027B0002E2F696E632F7574696C732F4269744D87
:1027C000616E6970756C6174696F6E2E68000000CF
:1027D000766F69642073746D33323A3A7574696C3C
:1027E0003A3A427573795761697428636F6E7374EE
:1027F0002046756E632629205B7769746820696EB0
:10280000742074696D656F7574203D2032303030EE
:102810003B2073746D33323A3A7574696C3A3A46B8
:10282000756E63203D207374643A3A66756E637406
:10283000696F6E3C626F6F6C28293E5D000000007E
:10284000EC28000850280008EC280008842800081C
:102850002A5A4E3573746D333233646576346D6342
:10286000616C357573617274355573617274385467
:1028700072616E736D6974457445556C7645305F51
:10288000000000002A5A4E3573746D33323364658C
:1028900076346D63616C357573617274355573612F
:1028A0007274385472616E736D6974457445556CF9
:1028B00076455F004C290008C028000870290008F0
:1028C0004E31305F5F637878616269763131375FAE
:1028D0005F636C6173735F747970655F696E666F57
:1028E0004500000000000000B4280008650A000848
:1028F000790A0008150C0008150C0008E30A000806
:10290000250A0008CB0A00088D0A0008570A0008AB
:102910004C2900081C290008B42800084E31305FFB
:102920005F637878616269763132305F5F73695FC7
:10293000636C6173735F747970655F696E666F4510
:10294000000000000000000010290008110B000822
:10295000250B0008150C0008150C0008E30A0008F8
:10296000250A0008E90B0008750B0008390B000860
:10297000EC28000878290008537439747970655F71
:10298000696E666F002C2066756E6374696F6E3AAF
:102990002000617373657274696F6E202225732243
:1029A000206661696C65643A2066696C6520222541
:1029B00073222C206C696E65202564257325730AAB
:1029C0000000000004000020232D302B2000686C44
:1029D0004C00656667454647003031323334353642
:1029E000373839414243444546003031323334357B
:1029F00036373839616263646566005245454E5426
:102A0000206D616C6C6F63207375636365656465CD
:102A100064002F6D6E742F776F726B7370616365D6
:102A20002F776F726B73706163652F4743432D314E
:102A3000302D706970656C696E652F6A656E6B69A3
:102A40006E732D4743432D31302D706970656C696D
:102A50006E652D3333385F32303231313031385F8B
:102A6000313633343531363230332F7372632F6E53
:102A700065776C69622F6E65776C69622F6C69622D
:102A8000632F7374646C69622F72616E642E6300CD
:102A90000000000000000000000000000000000036
:102AA0000000000000000000000000000000000026
:102AB0000000000000000000000000000000000016
:102AC0000000000000000000000000000000000006
:102AD00000000000000000000000000000000000F6
:102AE00000000000000000000000000000000000E6
:102AF0003A73656D69686F7374696E672D66656199
:082B000074757265730000009A
:102B08000400002000000000B02A0008D02A0008B5
:102B1800902A0008000000000000000000000000EB
:102B2800000000000000000000000000000000009D
:102B3800000000000000000000000000000000008D
:102B4800000000000000000000000000000000007D
:102B5800000000000000000000000000000000006D
:102B680000000000ADDEFECAFFFFFFFFFFFFFFFF12
:04000005080001C925
:00000001FF
